:060000000A128A11E82F2C
:100D1A00063400340034013400340234003403341D
:100D2A000034043400340534003406340034073403
:100D3A0000347E088A007F0882000A128A119E26E1
:100D4A000A128A118000840A04087D0603190034F5
:100D5A00FF0A0319FE0AA22E0130FA00780AB72EFA
:100D6A000310FA0DFF3E031DB52E7A08FF3A8312CF
:100D7A00031386050130FA00760AC52E0310FA0D10
:100D8A00FF3E031DC32E7A0886040230FC0045305C
:100D9A00FB00A930FA00FA0BD02EFB0BD02EFC0B6D
:100DAA00D02ED72E0800F501F31FDC2EDD2EE42EFF
:100DBA00F209F309F20A0319F30A0130F500F11FE7
:100DCA00E72EE82EED2EF009F109F00A0319F10ACF
:100DDA00700871040319F22EF32E202F0130F4004B
:100DEA00FF2E01300310F00DF10DFF3E031DF72E0B
:100DFA000130F407F11F022F032FF62E7108730238
:100E0A00031D092F70087202031C0C2F0D2F132FBC
:100E1A007008F2027108031CF303F3020130031095
:100E2A00F10CF00CFF3E031D142F0130F402031DD8
:100E3A001F2F202F032F75080319242F252F2A2F40
:100E4A00F209F309F20A0319F30A7308F1007208A6
:100E5A00F000080083160313860183120313860128
:100E6A003A3084002430A0001030A1008313000817
:100E7A00A200040AA3002008840022088000040AB1
:100E8A00A00023088400A10B3B2F0830B8000030D3
:100E9A00B900B401B501912F831203133408A000DD
:100EAA002007243E840083130008F600840A000801
:100EBA00F7003908F1003808F00038083407A100B3
:100ECA0039080318390A3507A2002108FF3EF20043
:100EDA0022080318013EFF3EF3000A128A11D8269F
:100EEA000A128A11700883120313A3002307243EEF
:100EFA00840083130008F800840A0008F9000A1223
:100F0A008A11B1260A128A11013083120313B40717
:100F1A000318B50A0030B5073508803AA000390829
:100F2A00803A2002031D9B2F38083402031C9E2F8F
:100F3A009F2F512F831203133808FE3EB60039083B
:100F4A000318013EFF3EB700B71FAC2FAD2FAE2FDF
:100F5A004E2F3608A0002007243E84008313000881
:100F6A00F600840A0008F7003908F1003808F00092
:100F7A003608013EF20037080318013E003EF3002E
:100F8A000A128A11D8260A128A11700883120313C8
:100F9A00A1002107243E840083130008F800840A74
:100FAA000008F9000A128A11B1260A128A11FF30C2
:100FBA0083120313B6070318B70AFF30B707A92F1E
:100FCA000A128A11002883134A30FD000630FE00F7
:100FDA008E30FF003A3084000A128A11A2260A12C1
:100FEA008A110A128A118D260A128A11FD008301BA
:060FFA000A128A112F2FDC
:02400E007A3FF7
:00000001FF
